{
  "contractName": "Exchange",
  "abi": [
    {
      "inputs": [
        {
          "internalType": "address",
          "name": "_feeAccount",
          "type": "address"
        },
        {
          "internalType": "uint256",
          "name": "_feePercent",
          "type": "uint256"
        }
      ],
      "stateMutability": "nonpayable",
      "type": "constructor"
    },
    {
      "anonymous": false,
      "inputs": [
        {
          "indexed": false,
          "internalType": "uint256",
          "name": "id",
          "type": "uint256"
        },
        {
          "indexed": false,
          "internalType": "address",
          "name": "user",
          "type": "address"
        },
        {
          "indexed": false,
          "internalType": "address",
          "name": "tokenReceived",
          "type": "address"
        },
        {
          "indexed": false,
          "internalType": "uint256",
          "name": "amountReceived",
          "type": "uint256"
        },
        {
          "indexed": false,
          "internalType": "address",
          "name": "tokenGiven",
          "type": "address"
        },
        {
          "indexed": false,
          "internalType": "uint256",
          "name": "amountGiven",
          "type": "uint256"
        },
        {
          "indexed": false,
          "internalType": "uint256",
          "name": "timestamp",
          "type": "uint256"
        }
      ],
      "name": "Cancel",
      "type": "event"
    },
    {
      "anonymous": false,
      "inputs": [
        {
          "indexed": false,
          "internalType": "address",
          "name": "token",
          "type": "address"
        },
        {
          "indexed": false,
          "internalType": "address",
          "name": "user",
          "type": "address"
        },
        {
          "indexed": false,
          "internalType": "uint256",
          "name": "amount",
          "type": "uint256"
        },
        {
          "indexed": false,
          "internalType": "uint256",
          "name": "balance",
          "type": "uint256"
        }
      ],
      "name": "Deposit",
      "type": "event"
    },
    {
      "anonymous": false,
      "inputs": [
        {
          "indexed": false,
          "internalType": "uint256",
          "name": "id",
          "type": "uint256"
        },
        {
          "indexed": false,
          "internalType": "address",
          "name": "user",
          "type": "address"
        },
        {
          "indexed": false,
          "internalType": "address",
          "name": "tokenReceived",
          "type": "address"
        },
        {
          "indexed": false,
          "internalType": "uint256",
          "name": "amountReceived",
          "type": "uint256"
        },
        {
          "indexed": false,
          "internalType": "address",
          "name": "tokenGiven",
          "type": "address"
        },
        {
          "indexed": false,
          "internalType": "uint256",
          "name": "amountGiven",
          "type": "uint256"
        },
        {
          "indexed": false,
          "internalType": "uint256",
          "name": "timestamp",
          "type": "uint256"
        }
      ],
      "name": "Order",
      "type": "event"
    },
    {
      "anonymous": false,
      "inputs": [
        {
          "indexed": false,
          "internalType": "uint256",
          "name": "id",
          "type": "uint256"
        },
        {
          "indexed": false,
          "internalType": "address",
          "name": "user",
          "type": "address"
        },
        {
          "indexed": false,
          "internalType": "address",
          "name": "tokenReceived",
          "type": "address"
        },
        {
          "indexed": false,
          "internalType": "uint256",
          "name": "amountReceived",
          "type": "uint256"
        },
        {
          "indexed": false,
          "internalType": "address",
          "name": "tokenGiven",
          "type": "address"
        },
        {
          "indexed": false,
          "internalType": "uint256",
          "name": "amountGiven",
          "type": "uint256"
        },
        {
          "indexed": false,
          "internalType": "address",
          "name": "userFill",
          "type": "address"
        },
        {
          "indexed": false,
          "internalType": "uint256",
          "name": "timestamp",
          "type": "uint256"
        }
      ],
      "name": "Trade",
      "type": "event"
    },
    {
      "anonymous": false,
      "inputs": [
        {
          "indexed": false,
          "internalType": "address",
          "name": "token",
          "type": "address"
        },
        {
          "indexed": false,
          "internalType": "address",
          "name": "user",
          "type": "address"
        },
        {
          "indexed": false,
          "internalType": "uint256",
          "name": "amount",
          "type": "uint256"
        },
        {
          "indexed": false,
          "internalType": "uint256",
          "name": "balance",
          "type": "uint256"
        }
      ],
      "name": "Withdraw",
      "type": "event"
    },
    {
      "stateMutability": "nonpayable",
      "type": "fallback"
    },
    {
      "inputs": [
        {
          "internalType": "address",
          "name": "",
          "type": "address"
        },
        {
          "internalType": "address",
          "name": "",
          "type": "address"
        }
      ],
      "name": "balances",
      "outputs": [
        {
          "internalType": "uint256",
          "name": "",
          "type": "uint256"
        }
      ],
      "stateMutability": "view",
      "type": "function",
      "constant": true
    },
    {
      "inputs": [],
      "name": "feeAccount",
      "outputs": [
        {
          "internalType": "address",
          "name": "",
          "type": "address"
        }
      ],
      "stateMutability": "view",
      "type": "function",
      "constant": true
    },
    {
      "inputs": [],
      "name": "feePercent",
      "outputs": [
        {
          "internalType": "uint256",
          "name": "",
          "type": "uint256"
        }
      ],
      "stateMutability": "view",
      "type": "function",
      "constant": true
    },
    {
      "inputs": [
        {
          "internalType": "uint256",
          "name": "",
          "type": "uint256"
        }
      ],
      "name": "orderCancelled",
      "outputs": [
        {
          "internalType": "bool",
          "name": "",
          "type": "bool"
        }
      ],
      "stateMutability": "view",
      "type": "function",
      "constant": true
    },
    {
      "inputs": [],
      "name": "orderCount",
      "outputs": [
        {
          "internalType": "uint256",
          "name": "",
          "type": "uint256"
        }
      ],
      "stateMutability": "view",
      "type": "function",
      "constant": true
    },
    {
      "inputs": [
        {
          "internalType": "uint256",
          "name": "",
          "type": "uint256"
        }
      ],
      "name": "orderFilled",
      "outputs": [
        {
          "internalType": "bool",
          "name": "",
          "type": "bool"
        }
      ],
      "stateMutability": "view",
      "type": "function",
      "constant": true
    },
    {
      "inputs": [
        {
          "internalType": "uint256",
          "name": "",
          "type": "uint256"
        }
      ],
      "name": "orders",
      "outputs": [
        {
          "internalType": "uint256",
          "name": "id",
          "type": "uint256"
        },
        {
          "internalType": "address",
          "name": "user",
          "type": "address"
        },
        {
          "internalType": "address",
          "name": "tokenReceived",
          "type": "address"
        },
        {
          "internalType": "uint256",
          "name": "amountReceived",
          "type": "uint256"
        },
        {
          "internalType": "address",
          "name": "tokenGiven",
          "type": "address"
        },
        {
          "internalType": "uint256",
          "name": "amountGiven",
          "type": "uint256"
        },
        {
          "internalType": "uint256",
          "name": "timestamp",
          "type": "uint256"
        }
      ],
      "stateMutability": "view",
      "type": "function",
      "constant": true
    },
    {
      "inputs": [],
      "name": "depositEther",
      "outputs": [],
      "stateMutability": "payable",
      "type": "function",
      "payable": true
    },
    {
      "inputs": [
        {
          "internalType": "uint256",
          "name": "_amount",
          "type": "uint256"
        }
      ],
      "name": "withdrawEther",
      "outputs": [],
      "stateMutability": "nonpayable",
      "type": "function"
    },
    {
      "inputs": [
        {
          "internalType": "address",
          "name": "_token",
          "type": "address"
        },
        {
          "internalType": "uint256",
          "name": "_amount",
          "type": "uint256"
        }
      ],
      "name": "depositToken",
      "outputs": [],
      "stateMutability": "nonpayable",
      "type": "function"
    },
    {
      "inputs": [
        {
          "internalType": "address",
          "name": "_token",
          "type": "address"
        },
        {
          "internalType": "uint256",
          "name": "_amount",
          "type": "uint256"
        }
      ],
      "name": "withdrawToken",
      "outputs": [],
      "stateMutability": "nonpayable",
      "type": "function"
    },
    {
      "inputs": [
        {
          "internalType": "address",
          "name": "_token",
          "type": "address"
        },
        {
          "internalType": "address",
          "name": "_user",
          "type": "address"
        }
      ],
      "name": "balanceOf",
      "outputs": [
        {
          "internalType": "uint256",
          "name": "",
          "type": "uint256"
        }
      ],
      "stateMutability": "view",
      "type": "function",
      "constant": true
    },
    {
      "inputs": [
        {
          "internalType": "address",
          "name": "_tokenReceived",
          "type": "address"
        },
        {
          "internalType": "uint256",
          "name": "_amountReceived",
          "type": "uint256"
        },
        {
          "internalType": "address",
          "name": "_tokenGiven",
          "type": "address"
        },
        {
          "internalType": "uint256",
          "name": "_amountGiven",
          "type": "uint256"
        }
      ],
      "name": "makeOrder",
      "outputs": [],
      "stateMutability": "nonpayable",
      "type": "function"
    },
    {
      "inputs": [
        {
          "internalType": "uint256",
          "name": "_id",
          "type": "uint256"
        }
      ],
      "name": "cancelOrder",
      "outputs": [],
      "stateMutability": "nonpayable",
      "type": "function"
    },
    {
      "inputs": [
        {
          "internalType": "uint256",
          "name": "_id",
          "type": "uint256"
        }
      ],
      "name": "fillOrder",
      "outputs": [],
      "stateMutability": "nonpayable",
      "type": "function"
    }
  ],
  "bytecode": "0x608060405234801561001057600080fd5b50604051610e7b380380610e7b83398101604081905261002f91610058565b600080546001600160a01b0319166001600160a01b039390931692909217909155600155610092565b6000806040838503121561006b57600080fd5b82516001600160a01b038116811461008257600080fd5b6020939093015192949293505050565b610dda806100a16000396000f3fe6080604052600436106100e85760003560e01c80637fd6f15c1161008a578063a85c38ef11610059578063a85c38ef1461027a578063c23f001f146102f4578063e9c189661461032c578063f7888aec1461035c576100e8565b80637fd6f15c1461021c57806398ea5fca146102325780639a5c90aa1461023a5780639e281a981461025a576100e8565b80634a93e0da116100c65780634a93e0da14610164578063514fcac7146101a457806365e17c9d146101c457806367b830ad146101fc576100e8565b80632453ffa8146100f9578063338b5dea146101225780633bed33ce14610144575b3480156100f457600080fd5b600080fd5b34801561010557600080fd5b5061010f60045481565b6040519081526020015b60405180910390f35b34801561012e57600080fd5b5061014261013d366004610bc5565b61037c565b005b34801561015057600080fd5b5061014261015f366004610bef565b6104ac565b34801561017057600080fd5b5061019461017f366004610bef565b60066020526000908152604090205460ff1681565b6040519015158152602001610119565b3480156101b057600080fd5b506101426101bf366004610bef565b610562565b3480156101d057600080fd5b506000546101e4906001600160a01b031681565b6040516001600160a01b039091168152602001610119565b34801561020857600080fd5b50610142610217366004610bef565b61060a565b34801561022857600080fd5b5061010f60015481565b6101426106c5565b34801561024657600080fd5b50610142610255366004610c08565b610751565b34801561026657600080fd5b50610142610275366004610bc5565b61086b565b34801561028657600080fd5b506102e1610295366004610bef565b6003602081905260009182526040909120805460018201546002830154938301546004840154600585015460069095015493956001600160a01b03938416959084169492939091169187565b6040516101199796959493929190610c4c565b34801561030057600080fd5b5061010f61030f366004610c8a565b600260209081526000928352604080842090915290825290205481565b34801561033857600080fd5b50610194610347366004610bef565b60056020526000908152604090205460ff1681565b34801561036857600080fd5b5061010f610377366004610c8a565b6109b9565b6001600160a01b03821661038f57600080fd5b6040516323b872dd60e01b8152336004820152306024820152604481018290526001600160a01b038316906323b872dd906064016020604051808303816000875af11580156103e2573d6000803e3d6000fd5b505050506040513d601f19601f820116820180604052508101906104069190610cbd565b61040f57600080fd5b6001600160a01b038216600090815260026020908152604080832033845290915281208054839290610442908490610cfc565b90915550506001600160a01b0382166000908152600260209081526040808320338085529252918290205491517fdcbc1c05240f31ff3ad067ef1ee35ce4997762752e3a095284754544f4c709d7926104a092869290918691610d0f565b60405180910390a15050565b336000908152600080516020610d8583398151915260205260409020548111156104d557600080fd5b336000908152600080516020610d85833981519152602052604081208054839290610501908490610d38565b9091555050336000818152600080516020610d8583398151915260205260408082205490517ff341246adaac6f497bc2a656f546ab9e182111d630394f0c57c710a59a2cb5679361055793929091869190610d0f565b60405180910390a150565b600081815260036020526040902060018101546001600160a01b0316331461058957600080fd5b8054821461059657600080fd5b600082815260056020819052604091829020805460ff1916600117905582546002840154600385015460048601549386015494517f77de1da0be5f2d3b110d05c6694e5c4ff2d9da7cd23d84353ecf78c7b5acec61956104a09533946001600160a01b039081169493911691904290610c4c565b60008111801561061c57506004548111155b61062557600080fd5b60008181526006602052604090205460ff161561064157600080fd5b60008181526005602052604090205460ff161561065d57600080fd5b6000818152600360208190526040909120805460018201546002830154938301546004840154600585015494956106a8956001600160a01b03948516949182169392909116906109e6565b546000908152600660205260409020805460ff1916600117905550565b336000908152600080516020610d858339815191526020526040812080543492906106f1908490610cfc565b9091555050336000818152600080516020610d8583398151915260205260408082205490517fdcbc1c05240f31ff3ad067ef1ee35ce4997762752e3a095284754544f4c709d79361074793929091349190610d0f565b60405180910390a1565b6001600460008282546107649190610cfc565b918290555060048181556040805160e0810182528381523360208083018281526001600160a01b038c8116858701908152606086018d81528c83166080880190815260a088018d81524260c08a0181815260009d8e526003988990529c8b902099518a55955160018a0180549187166001600160a01b0319928316179055935160028a01805491871691861691909117905591519588019590955593518689018054919093169116179055905160058401559451600690920191909155915490517f9d33853d43e3607b4cc01fdc78338ff2dca6fef7db9232dae6d3eb55fbc3b109945061085d93919291899189918991899190610c4c565b60405180910390a150505050565b6001600160a01b03821661087e57600080fd5b6001600160a01b03821660009081526002602090815260408083203384529091529020548111156108ae57600080fd5b6001600160a01b0382166000908152600260209081526040808320338452909152812080548392906108e1908490610d38565b909155505060405163a9059cbb60e01b8152336004820152602481018290526001600160a01b0383169063a9059cbb906044016020604051808303816000875af1158015610933573d6000803e3d6000fd5b505050506040513d601f19601f820116820180604052508101906109579190610cbd565b61096057600080fd5b6001600160a01b0382166000908152600260209081526040808320338085529252918290205491517ff341246adaac6f497bc2a656f546ab9e182111d630394f0c57c710a59a2cb567926104a092869290918691610d0f565b6001600160a01b038083166000908152600260209081526040808320938516835292905220545b92915050565b60006064600154856109f89190610d4b565b610a029190610d62565b9050610a0e8185610cfc565b6001600160a01b038616600090815260026020908152604080832033845290915281208054909190610a41908490610d38565b90915550506001600160a01b038086166000908152600260209081526040808320938a1683529290529081208054869290610a7d908490610cfc565b90915550506001600160a01b038086166000908152600260209081526040808320835490941683529290529081208054839290610abb908490610cfc565b90915550506001600160a01b038084166000908152600260209081526040808320938a1683529290529081208054849290610af7908490610d38565b90915550506001600160a01b038316600090815260026020908152604080832033845290915281208054869290610b2f908490610cfc565b9091555050604080518881526001600160a01b03888116602083015287811682840152606082018790528516608082015260a081018490523360c08201524260e082015290517f0dddf4182dc0fc1a311cb75f049c97403c6b8a99cf6b2229a36e7c526acb3f81918190036101000190a150505050505050565b80356001600160a01b0381168114610bc057600080fd5b919050565b60008060408385031215610bd857600080fd5b610be183610ba9565b946020939093013593505050565b600060208284031215610c0157600080fd5b5035919050565b60008060008060808587031215610c1e57600080fd5b610c2785610ba9565b935060208501359250610c3c60408601610ba9565b9396929550929360600135925050565b9687526001600160a01b03958616602088015293851660408701526060860192909252909216608084015260a083019190915260c082015260e00190565b60008060408385031215610c9d57600080fd5b610ca683610ba9565b9150610cb460208401610ba9565b90509250929050565b600060208284031215610ccf57600080fd5b81518015158114610cdf57600080fd5b9392505050565b634e487b7160e01b600052601160045260246000fd5b808201808211156109e0576109e0610ce6565b6001600160a01b0394851681529290931660208301526040820152606081019190915260800190565b818103818111156109e0576109e0610ce6565b80820281158282048414176109e0576109e0610ce6565b600082610d7f57634e487b7160e01b600052601260045260246000fd5b50049056feac33ff75c19e70fe83507db0d683fd3465c996598dc972688b7ace676c89077ba26469706673582212200189604e4a665baaf13e4cd774185614231a1b8f741ba28c71eaece9f326c19a64736f6c63430008130033",
  "immutableReferences": {},
  "source": "// SPDX-License-Identifier: MIT\npragma solidity ^0.8.19;\n\nimport './Token.sol';\n\ncontract Exchange {\n\n    // Variables\n    address public feeAccount; // the account that receives trading fees\n    uint256 public feePercent;\n    address constant ETH = address(0); // Store ETH in tokens mapping with blank address\n    mapping(address => mapping(address => uint256)) public balances; // token => user address => amount held by user\n    mapping(uint256 => _Order) public orders;\n    uint256 public orderCount;\n    mapping(uint256 => bool) public orderCancelled;\n    mapping(uint256 => bool) public orderFilled;\n    \n    // Events\n    event Deposit(address token, address user, uint256 amount, uint256 balance);\n    event Withdraw(address token, address user, uint256 amount, uint256 balance);\n    event Order(uint256 id, address user, address tokenReceived, uint256 amountReceived, address tokenGiven, uint256 amountGiven, uint256 timestamp);\n    event Cancel(uint256 id, address user, address tokenReceived, uint256 amountReceived, address tokenGiven, uint256 amountGiven, uint256 timestamp);\n    event Trade(uint256 id, address user, address tokenReceived, uint256 amountReceived, address tokenGiven, uint256 amountGiven, address userFill, uint256 timestamp);\n\n    struct _Order {\n        uint256 id;\n        address user;\n        address tokenReceived;\n        uint256 amountReceived;\n        address tokenGiven;\n        uint256 amountGiven;\n        uint256 timestamp;\n    }\n\n    // Store the order\n    // Add the order to storage\n\n    constructor (address _feeAccount, uint256 _feePercent) {\n        feeAccount = _feeAccount;\n        feePercent = _feePercent;\n    }\n\n    // Reverts if ETH is sent to this smart contract on accident\n    fallback() external {\n        revert();\n    }\n\n    function depositEther() payable public {\n        balances[ETH][msg.sender] += msg.value;\n        emit Deposit(ETH, msg.sender, msg.value, balances[ETH][msg.sender]);\n    }\n\n    function withdrawEther(uint _amount) public {\n        require(balances[ETH][msg.sender] >= _amount);\n        balances[ETH][msg.sender] -= _amount;\n        // msg.sender.transfer(_amount);\n        emit Withdraw(ETH, msg.sender, _amount, balances[ETH][msg.sender]);\n    }\n\n    function depositToken(address _token, uint256 _amount) public {\n        require(_token != ETH);\n        require(Token(_token).transferFrom(msg.sender, address(this), _amount));\n        balances[_token][msg.sender] += _amount; \n        emit Deposit(_token, msg.sender, _amount, balances[_token][msg.sender]);\n    }\n\n    function withdrawToken(address _token, uint256 _amount) public {\n        require(_token != address(0));\n        require(balances[_token][msg.sender] >= _amount);\n        balances[_token][msg.sender] -= _amount;\n        require(Token(_token).transfer(msg.sender, _amount));\n        emit Withdraw(_token, msg.sender, _amount, balances[_token][msg.sender]);\n    }\n\n    function balanceOf(address _token, address _user) public view returns (uint256) {\n        return balances[_token][_user];\n    }\n\n    function makeOrder(address _tokenReceived, uint256 _amountReceived, address _tokenGiven, uint256 _amountGiven) public {\n        orderCount = orderCount += 1;\n        orders[orderCount] = _Order(orderCount, msg.sender, _tokenReceived, _amountReceived, _tokenGiven, _amountGiven, block.timestamp);\n        emit Order(orderCount, msg.sender, _tokenReceived, _amountReceived, _tokenGiven, _amountGiven, block.timestamp);\n    }\n\n    function cancelOrder(uint256 _id) public {\n        _Order storage _order = orders[_id];\n        require(address(_order.user) == msg.sender);\n        require(_order.id == _id);\n        orderCancelled[_id] = true;\n        emit Cancel(_order.id, msg.sender, _order.tokenReceived, _order.amountReceived, _order.tokenGiven, _order.amountGiven, block.timestamp);\n    }\n\n    function fillOrder (uint256 _id) public {\n        require(_id > 0 && _id <= orderCount);\n        require(!orderFilled[_id]);\n        require(!orderCancelled[_id]);\n        _Order storage _order = orders[_id];\n       _trade(_order.id, _order.user, _order.tokenReceived, _order.amountReceived, _order.tokenGiven, _order.amountGiven);\n        orderFilled[_order.id] = true;\n        \n    }\n\n    function _trade(uint256 _orderId, address _user, address _tokenReceived, uint256 _amountReceived, address _tokenGiven, uint256 _amountGiven) internal {\n        uint256 _feeAmount = _amountReceived * feePercent / 100;\n\n        balances[_tokenReceived][msg.sender] -= (_amountReceived + _feeAmount); // Order filler deducts token amount ordered by order maker + trade fee\n        balances[_tokenReceived][_user] += _amountReceived; // Order maker receives token amount\n        balances[_tokenReceived][feeAccount] += _feeAmount; // Exchange receives trade fee\n        balances[_tokenGiven][_user] -= _amountGiven; // Order maker deducts token amount to give, specified when making order\n        balances[_tokenGiven][msg.sender] += _amountReceived; // Order filler receives token amount from order maker\n\n        // Emit Trade Event\n        emit Trade(_orderId, _user, _tokenReceived, _amountReceived, _tokenGiven, _amountGiven, msg.sender, block.timestamp);\n    }\n}\n\n\n\n\n",
  "sourcePath": "/Users/jamesstorage/Repos/blockchain-projects/decentralized-exchange/src/contracts/Exchange.sol",
  "compiler": {
    "name": "solc",
    "version": "0.8.19+commit.7dd6d404.Emscripten.clang"
  },
  "schemaVersion": "3.4.13",
  "updatedAt": "2023-03-18T18:26:20.811Z",
  "networkType": "ethereum",
  "devdoc": {
    "kind": "dev",
    "methods": {},
    "version": 1
  },
  "userdoc": {
    "kind": "user",
    "methods": {},
    "version": 1
  }
}